:0300000002085F94
:0C085F00787FE4F6D8FD7581210208A620
:100CFC00E4900000F0120D15120D61120A3A120D5B
:090D0C008A120D971203B380FB5B
:100CA8005354433132433541363053320D0A55617E
:0D0CB800727432205465737420210D0A00FF
:1008EB004102D5004102D4004102A100603202A2B4
:1008FB0000000000000000000000000000000000ED
:10090B0000000000000000000000000000000000DC
:10091B0000000000000000000000000000000000CC
:02092B000000CA
:100D1500759A50759CB9438E1075AF01D2AF7BFFA4
:070D25007A0C79A8020AA074
:090DAE002009FDEFD209F59B229A
:100B7C0090022FEBF0A3EAF0A3E9F090022FE0FB38
:100B8C00A3E0FAA3E0F91206FE601790022FA3E48B
:100B9C0075F001120717A9F0FA1206FEFF120DAE3E
:030BAC0080D922CB
:0B0AA000900001EBF0A3EAF0A3E9F0E6
:100AAB0090002C7401F0A37400F0A37404F0900078
:100ABB0001E0F9A3E0FAA3E090022FC9F0A3EAF05A
:100ACB00A3E9F090002CE0F9A3E0FAA3E090023246
:100ADB00C9F0A3EAF0A3E9F07B017A00792F120A9F
:0A0AEB00F57B017A00792F020B7CE5
:0300430002051C97
:0D051C00C0E0C0F0C083C082C0D075D00820
:10052900E4FF90025DF0E59A20E003020620539A69
:10053900FEAF9BEFB480099002D57401F002062A40
:100549009002D5E0FEB4010EEF6402600302062AB0
:100559007402F002062AEEB4020E9002A1EFF090A6
:1005690002D57403F002062A9002D5E06403600301
:100579000206209002A1E0FED39400400C74A22E42
:10058900F582E43402F583EFF09002A1E014F0E083
:1005990060030206209002D5F07F2A120C687F08BA
:1005A90012001B7FAA12001B7F0112001B90025D23
:1005B900740BF090025DE0FFD39405401774A22FED
:1005C900F582E43402F583E0FF12001B90025DE03E
:1005D90014F080DF120D707F2A120C687F08120058
:1005E9001B7FAA12001B7F0112001B90025D74057C
:1005F900F090025DE0FFD39400401774A22FF582BA
:10060900E43402F583E0FF12001B90025DE014F070
:1006190080DF7FAA12001BE59A30E105539AFDC2DB
:0106290009C7
:0B062A00D0D0D082D083D0F0D0E032DE
:0C0D70007F017E267DD6DDFEDEFADFF678
:010D7C002254
:100CC5007468652074656C6570686F6E65206973FE
:0C0CD500206F66666C696E65200D0A00D9
:10092D004202DB00004102D7024102DE004102E03B
:10093D00024102DF004102D6004102D8004102D936
:09094D00004102DA004102DD0064
:0F0D6100759D03E4F5BD75BC807F02FE020CE1B9
:100D2C00EF4488F5BC00000000E5BC30E4FB53BC8C
:040D3C00EFAFBD2236
:100CE100EF1FAA0670011E4A60107C137D88ED1D5E
:0A0CF100AA0470011C4A60E880F4B8
:010CFB0022D6
:05096900900001EFF019
:10096E00E4F9FEFDFC900001E0FF120D2CEFC394A4
:10097E000550047D01800DEDB40109EFD394324092
:10098E00030CE4FDECC3940240089002D87401F00D
:10099E008005E49002D8F0EFFB9002DCE02BF090A3
:1009AE0002DBE03400F00EEEB410BA9002DBE0C4CD
:1009BE00F854F0C8A3E0C4540F48F9E49002DBF0F9
:0409CE00A3F0AF01E2
:0109D2002202
:1003B300E4FF1209699002DEE0FED394AF4005EF3B
:1003C3009428400BEEC394285010EF94AF400B9049
:1003D30002DF7401F0E49002DAF030C162EFD394EB
:1003E300B440109002DEE0D394AA40079002D77481
:1003F300018040EFC39487501DE49002DAF090022D
:10040300E0E0640160089002D77402F08026900255
:10041300DF7401F0801EEFC39487401EEF94985061
:10042300199002DEE0948440119002D77403F0E443
:100433009002DAF09002D9E004F09002DEEFF0E4EB
:1004430020C10B9002DAF09002DF04F080089002E2
:10045300DFF09002D6F09002DFE0FFB401199002C2
:10046300D6E06F60097B047D017FA1120BAF900280
:10047300DFE09002D6F02220C1030205139002E0D0
:10048300E0FF9002D7E0FEB50710B40205EF640267
:1004930060089002DDE0640170299002DAE0D394F1
:1004A3000A400B9002DDE0B401047B058005900255
:1004B300D7E0FB7D017FA1120BAF9002DDE0B40119
:1004C30002E4F09002D7E0640170459002E0E0643A
:1004D30001703D9002DFE0FF7036EF70339002DA77
:1004E300E0FFD394145029EF940A4009E49002E406
:1004F300F07B0580059002D7E0FB7D017FA1120B05
:10050300AF7BFF7A0C79C5120AA09002DAE004F0FF
:080513009002D7E09002E0F035
:01051B0022BD
:03000300020635BD
:10063500C0E0C0F0C083C082C0D075D000C000C08B
:1006450001C002C003C004C005C006C0077F221256
:100655000C68120C8990025FEFF0D2B224F6607933
:10066500240870757F28120C68120C8990025EEFC1
:10067500F0900260E4F090025EE0FF900260E0C35B
:100685009F501A120C89900260E02461F582E434CF
:1006950002F583EFF0900260E004F080D990025EED
:1006A500E0B4070D900264E0B409069002DD740120
:1006B500F090025EE0B4081C900264E0B41015905E
:1006C5000266E0FF70049002E4F0EFB401069002C8
:1006D500E47401F0120D7D80007F23120C68D007B1
:1006E500D006D005D004D003D002D001D000D0D0A0
:0906F500D082D083D0F0D0E032B5
:100A3A0043BB10120D7D7F06120C687F5512001BF6
:100A4A0090000174AAF0120C89900001E06F601CFA
:100A5A007450F07F05120C68120C89900001E014A2
:100A6A00F0E070EFE4FF120C68120D7D7F15120C96
:100A7A00687F0212001B9000017464F0120C89EF67
:100A8A0064516009900001E014F0E070EFC288C27E
:050A9A0089D2A8D2AFD3
:010A9F002234
:100C6800E4F5957596FFC2C3D2B6D2B7D2C4D2C343
:100C7800D2B7C2B6C2C48FA0D2B6D2B7C2C3D2C48A
:010C88002249
:0500160012001B7F55E4
:10001B00E4F5957596FFC2C3D2B6D2B7D2C48FA002
:0F002B00D2B7C2B6C2C4D2B6D2B7C2C3D2C422F1
:100C89007595FFE4F596C2C3D2B6D2B7D2C4D2B62F
:0E0C9900C2B7C2C4AFA0D2B6D2B7C2C3D2C4D3
:010CA700222A
:100C1400AE079002E4E070247F2A120C687F07126A
:100C240000167F02120016AF0612001BAF05120059
:0D0C34001BEE2FFF12001B7F1612001B226B
:100BAF00AE079002E4E0702A7F2A120C687F0812C9
:100BBF0000167F03120016AF0612001BAF051200BE
:100BCF001BAF0312001BEE2D2BFF12001B7F161203
:030BDF00001B22D6
:0C0D7D007F7B7E747D09DDFEDEFADFF670
:010D89002247
:100956004202E500004202E200004102E1004102DB
:02096600E400AB
:03004B000209D3D4
:1009D300C0E0C0F0C083C082C0D075D00875CDC060
:1009E3009002E1E0FD700BAFCFEFFEA3E04EF0A36A
:1009F300E0F0ED64017035AFCF9002E2E0F0A3E0E8
:100A03004FF075CF559002E1E4F09002E4E0B401B9
:100A13001B7F2B120C687F0212001B9002E2E0FF87
:100A230012001B9002E2A3E0FF12001BD0D0D08281
:070A3300D083D0F0D0E032C7
:100D4000438920438E40758DFC438F02D2AFD28EF3
:010D50002280
:100BE20075D902E4F5D8F5E9F5F975DA499002E527
:100BF2007404F0A3E4F09002E5E0FEA3E0F5EAEE6F
:100C0200F5FAE02400F09002E5E03404F0D2AFD22D
:020C1200DE22E0
:03003B00020B3F76
:100B3F00C0E0C083C082C0D075D008C2D89002E593
:100B4F00E0FEA3E0F5EAEEF5FAE02400F09002E50E
:100B5F00E03404F0B2B49002E17401F0A3E4F0A326
:0D0B6F00F075CF55D0D0D082D083D0E032C9
:0A0DA400E4F5CF75CDC075CE5D22D9
:0D0D8A00120D40120BE2120DA443AF022225
:0D0D9700D28AC28BD2AA75930FE4F5942284
:030013000207B22F
:1007B200C0E0C0F0C083C082C0D075D000C000C00D
:0D07C20001C002C003C004C005C006C0078E
:1007CF00E4FEAF80EF540FFF9002E4E4F07060EFAF
:1007DF0014B40A0050599007F375F003A4C583258C
:1007EF00F0C5837302081102081502081902081DCB
:1007FF0002082102082502082902082D02083102E9
:10080F0008357B3180227B32801E7B33801A7B340C
:10081F0080167B3580127B36800E7B37800A7B38C3
:10082F0080067B3980027B307D017FA2120BAF9057
:05083F0002E47401F069
:10084400D007D006D005D004D003D002D001D00008
:0B085400D0D0D082D083D0F0D0E032B2
:100D5100438901758C3C758AB0D2AFD2A9D28C225D
:03000B00020DB72C
:090DB700C28D758C3C758AB032C6
:10086B00020CFCE493A3F8E493A34003F68001F29B
:10087B0008DFF48029E493A3F85407240CC8C3338E
:10088B00C4540F4420C8834004F456800146F6DF5D
:10089B00E4800B01020408102040809008EBE47EFA
:1008AB00019360BCA3FF543F30E509541FFEE49352
:1008BB00A360010ECF54C025E060A840B8E493A319
:1008CB00FAE493A3F8E493A3C8C582C8CAC583CA44
:1008DB00F0A3C8C582C8CAC583CADFE9DEE780BEFC
:01096800008E
:1006FE00BB010689828A83E0225002E722BBFE02FA
:09070E00E32289828A83E493222C
:10071700A3F8E0C5F025F0F0E58215827002158395
:06072700E0C838F0E822F2
:100AF50090022FE0FFA3E0FEA3E0CF900238F0A321
:100B0500EEF0A3EFF0900232E0CBF0A3E0CAF0A341
:100B1500E0C9F07F2290023BAD82AC831206FE8DC8
:100B2500828C83F0A309E970010ADFEC900232E0C0
:0A0B3500FBA3E0FAA3E0F90200B30D
:10004E00E5102438F582E43402F583E005102290A1
:10005E000235300703900238E475F00112076C0286
:10006E0006FE2000E97F2ED2008018EF540F249058
:10007E00D43440D4FF30040BEF24BFB41A00500325
:10008E002461FFE511600215110514E514700205D7
:10009E001330070E900235E475F00112076CEF0273
:1000AE00075A020C417403D2078003E4C207F5100D
:1000BE00900235120783E4F511F513F514E511607E
:1000CE00077F2012009180F57512FFC201C200C297
:1000DE0002C203C205C206C20812005DFF700D30D7
:1000EE0007057F001200A2AF14AE1322B4255FC223
:1000FE00D5C20412005DFF24D0B40A00501A75F068
:10010E000A781130D50508B6FF0106C6A426F620DA
:10011E00D5047002D20380D924CFB41A00EF500454
:10012E00C2E5D2040202A3D20180C6D20080C0D2A0
:10013E000280BCD2D580BAD20580B47F2012009145
:10014E002002077401B5110040F112004EFF12009B
:10015E00910200CBD208D206809512004EFB1200FF
:10016E004EFA12004EF94A4B700679747A037BFFF1
:10017E0020022EE511602A7E008E82758300120702
:10018E002D60060EEE651270F0C2D5EBC0E0EAC02F
:10019E00E0E9C0E0EE1202EAD0E0F9D0E0FAD0E0F9
:1001AE00FB1206FEFF60AAEBC0E0EAC0E0E9C0E089
:1001BE00120091D0E02401F9D0E03400FAD0E0FB37
:1001CE00E5120460DCD512D980877BFF7A0279E6CE
:1001DE00D202809C791080027908C206C20880087B
:1001EE00D2D5790A8004790AC2D5E512047002F5D7
:1001FE0012E4FAFDFEFF12004EFC7B0820011312E2
:10020E00004EFD7B1030000A12004EFE12004EFF13
:10021E007B20EC3382D592D55013C3E43000069F79
:10022E00FFE49EFEE42001039DFDE49CFCE4CBF87C
:10023E00C201EC700CCFCECDCCE824F8F870F38070
:10024E0017C3EF33FFEE33FEED33FDEC33FCEB3330
:10025E00FB994002FB0FD8E9EB300105F8D0E0C462
:10026E0048B201C0E00AEC4D4E4F78207B0070C2C0
:10027E00EAB5120040BCC0E01202ECD0F0D0E02093
:10028E000104C4C0E0C4B201C0F012007AD0F0D5AF
:10029E00F0EB0200CB12078C01685301E2580139D2
:1002AE004C01354201E64F01EE4401EE49014E4349
:0802BE0001F45501D84601D8F6
:1002C6004501D847039450013D2D01412E01642B71
:1002D600014523016220037D2A00FD480000015CE0
:1002E6003F3F3F00790AA2D5200314300509B91013
:1002F600020404B9080104A2D52006025001042014
:1003060002689202B511005034C0E07F2030031914
:100316007F30A20272067205500F120343C202C258
:1003260006C205C2087F30800F300503E9C0E0121F
:100336000091300503D0E0F9D0E0B511CC300517B7
:100346007F30B9100C1200917F583004077F7880F7
:1003560003B908031200913002057F2D0200917F38
:10036600202008F87F2B2006F322920280CF286EE9
:10037600756C6C2900D20112004E3001F8C201786A
:100386001130D50108F60200FD2D504349581200E0
:100396004E2403B405004001E490038F93120082BB
:0D03A600743A120082D2037511040201E2C4
:10072D00BB010CE58229F582E5833AF583E0225081
:10073D0006E92582F8E622BBFE06E92582F8E222CB
:0D074D00E58229F582E5833AF583E49322E5
:10075A00BB010689828A83F0225002F722BBFE017E
:02076A00F32278
:10076C00F8E0FBA3A3E0F925F0F0E5821582700216
:07077C001583E0FA38F022BA
:09078300EBF0A3EAF0A3E9F02277
:10078C00D083D082F8E4937012740193700DA3A3FC
:10079C0093F8740193F5828883E473740293686010
:0607AC00EFA3A3A380DF10
:100C4100EFB40A07740D120C4C740A309811A8996C
:100C5100B8130CC2983098FDA899C298B811F63013
:070C610099FDC299F59922EB
:00000001FF
